{
  "_format": "hh-sol-artifact-1",
  "contractName": "BountyNFT",
  "sourceName": "contracts/BountyNFT.sol",
  "abi": [
    {
      "inputs": [],
      "stateMutability": "nonpayable",
      "type": "constructor"
    },
    {
      "inputs": [
        {
          "internalType": "address",
          "name": "sender",
          "type": "address"
        },
        {
          "internalType": "uint256",
          "name": "tokenId",
          "type": "uint256"
        },
        {
          "internalType": "address",
          "name": "owner",
          "type": "address"
        }
      ],
      "name": "ERC721IncorrectOwner",
      "type": "error"
    },
    {
      "inputs": [
        {
          "internalType": "address",
          "name": "operator",
          "type": "address"
        },
        {
          "internalType": "uint256",
          "name": "tokenId",
          "type": "uint256"
        }
      ],
      "name": "ERC721InsufficientApproval",
      "type": "error"
    },
    {
      "inputs": [
        {
          "internalType": "address",
          "name": "approver",
          "type": "address"
        }
      ],
      "name": "ERC721InvalidApprover",
      "type": "error"
    },
    {
      "inputs": [
        {
          "internalType": "address",
          "name": "operator",
          "type": "address"
        }
      ],
      "name": "ERC721InvalidOperator",
      "type": "error"
    },
    {
      "inputs": [
        {
          "internalType": "address",
          "name": "owner",
          "type": "address"
        }
      ],
      "name": "ERC721InvalidOwner",
      "type": "error"
    },
    {
      "inputs": [
        {
          "internalType": "address",
          "name": "receiver",
          "type": "address"
        }
      ],
      "name": "ERC721InvalidReceiver",
      "type": "error"
    },
    {
      "inputs": [
        {
          "internalType": "address",
          "name": "sender",
          "type": "address"
        }
      ],
      "name": "ERC721InvalidSender",
      "type": "error"
    },
    {
      "inputs": [
        {
          "internalType": "uint256",
          "name": "tokenId",
          "type": "uint256"
        }
      ],
      "name": "ERC721NonexistentToken",
      "type": "error"
    },
    {
      "inputs": [
        {
          "internalType": "address",
          "name": "owner",
          "type": "address"
        }
      ],
      "name": "OwnableInvalidOwner",
      "type": "error"
    },
    {
      "inputs": [
        {
          "internalType": "address",
          "name": "account",
          "type": "address"
        }
      ],
      "name": "OwnableUnauthorizedAccount",
      "type": "error"
    },
    {
      "anonymous": false,
      "inputs": [
        {
          "indexed": true,
          "internalType": "address",
          "name": "owner",
          "type": "address"
        },
        {
          "indexed": true,
          "internalType": "address",
          "name": "approved",
          "type": "address"
        },
        {
          "indexed": true,
          "internalType": "uint256",
          "name": "tokenId",
          "type": "uint256"
        }
      ],
      "name": "Approval",
      "type": "event"
    },
    {
      "anonymous": false,
      "inputs": [
        {
          "indexed": true,
          "internalType": "address",
          "name": "owner",
          "type": "address"
        },
        {
          "indexed": true,
          "internalType": "address",
          "name": "operator",
          "type": "address"
        },
        {
          "indexed": false,
          "internalType": "bool",
          "name": "approved",
          "type": "bool"
        }
      ],
      "name": "ApprovalForAll",
      "type": "event"
    },
    {
      "anonymous": false,
      "inputs": [
        {
          "indexed": false,
          "internalType": "uint256",
          "name": "_fromTokenId",
          "type": "uint256"
        },
        {
          "indexed": false,
          "internalType": "uint256",
          "name": "_toTokenId",
          "type": "uint256"
        }
      ],
      "name": "BatchMetadataUpdate",
      "type": "event"
    },
    {
      "anonymous": false,
      "inputs": [
        {
          "indexed": false,
          "internalType": "uint256",
          "name": "_tokenId",
          "type": "uint256"
        }
      ],
      "name": "MetadataUpdate",
      "type": "event"
    },
    {
      "anonymous": false,
      "inputs": [
        {
          "indexed": true,
          "internalType": "address",
          "name": "previousOwner",
          "type": "address"
        },
        {
          "indexed": true,
          "internalType": "address",
          "name": "newOwner",
          "type": "address"
        }
      ],
      "name": "OwnershipTransferred",
      "type": "event"
    },
    {
      "anonymous": false,
      "inputs": [
        {
          "indexed": true,
          "internalType": "address",
          "name": "from",
          "type": "address"
        },
        {
          "indexed": true,
          "internalType": "address",
          "name": "to",
          "type": "address"
        },
        {
          "indexed": true,
          "internalType": "uint256",
          "name": "tokenId",
          "type": "uint256"
        }
      ],
      "name": "Transfer",
      "type": "event"
    },
    {
      "inputs": [
        {
          "internalType": "address",
          "name": "to",
          "type": "address"
        },
        {
          "internalType": "uint256",
          "name": "tokenId",
          "type": "uint256"
        }
      ],
      "name": "approve",
      "outputs": [],
      "stateMutability": "nonpayable",
      "type": "function"
    },
    {
      "inputs": [
        {
          "internalType": "address",
          "name": "owner",
          "type": "address"
        }
      ],
      "name": "balanceOf",
      "outputs": [
        {
          "internalType": "uint256",
          "name": "",
          "type": "uint256"
        }
      ],
      "stateMutability": "view",
      "type": "function"
    },
    {
      "inputs": [
        {
          "internalType": "uint256",
          "name": "tokenId",
          "type": "uint256"
        }
      ],
      "name": "getApproved",
      "outputs": [
        {
          "internalType": "address",
          "name": "",
          "type": "address"
        }
      ],
      "stateMutability": "view",
      "type": "function"
    },
    {
      "inputs": [
        {
          "internalType": "address",
          "name": "owner",
          "type": "address"
        },
        {
          "internalType": "address",
          "name": "operator",
          "type": "address"
        }
      ],
      "name": "isApprovedForAll",
      "outputs": [
        {
          "internalType": "bool",
          "name": "",
          "type": "bool"
        }
      ],
      "stateMutability": "view",
      "type": "function"
    },
    {
      "inputs": [
        {
          "internalType": "address",
          "name": "to",
          "type": "address"
        },
        {
          "internalType": "string",
          "name": "metadataURI",
          "type": "string"
        }
      ],
      "name": "mint",
      "outputs": [],
      "stateMutability": "nonpayable",
      "type": "function"
    },
    {
      "inputs": [],
      "name": "minter",
      "outputs": [
        {
          "internalType": "address",
          "name": "",
          "type": "address"
        }
      ],
      "stateMutability": "view",
      "type": "function"
    },
    {
      "inputs": [],
      "name": "name",
      "outputs": [
        {
          "internalType": "string",
          "name": "",
          "type": "string"
        }
      ],
      "stateMutability": "view",
      "type": "function"
    },
    {
      "inputs": [],
      "name": "owner",
      "outputs": [
        {
          "internalType": "address",
          "name": "",
          "type": "address"
        }
      ],
      "stateMutability": "view",
      "type": "function"
    },
    {
      "inputs": [
        {
          "internalType": "uint256",
          "name": "tokenId",
          "type": "uint256"
        }
      ],
      "name": "ownerOf",
      "outputs": [
        {
          "internalType": "address",
          "name": "",
          "type": "address"
        }
      ],
      "stateMutability": "view",
      "type": "function"
    },
    {
      "inputs": [],
      "name": "renounceOwnership",
      "outputs": [],
      "stateMutability": "nonpayable",
      "type": "function"
    },
    {
      "inputs": [
        {
          "internalType": "address",
          "name": "from",
          "type": "address"
        },
        {
          "internalType": "address",
          "name": "to",
          "type": "address"
        },
        {
          "internalType": "uint256",
          "name": "tokenId",
          "type": "uint256"
        }
      ],
      "name": "safeTransferFrom",
      "outputs": [],
      "stateMutability": "nonpayable",
      "type": "function"
    },
    {
      "inputs": [
        {
          "internalType": "address",
          "name": "from",
          "type": "address"
        },
        {
          "internalType": "address",
          "name": "to",
          "type": "address"
        },
        {
          "internalType": "uint256",
          "name": "tokenId",
          "type": "uint256"
        },
        {
          "internalType": "bytes",
          "name": "data",
          "type": "bytes"
        }
      ],
      "name": "safeTransferFrom",
      "outputs": [],
      "stateMutability": "nonpayable",
      "type": "function"
    },
    {
      "inputs": [
        {
          "internalType": "address",
          "name": "operator",
          "type": "address"
        },
        {
          "internalType": "bool",
          "name": "approved",
          "type": "bool"
        }
      ],
      "name": "setApprovalForAll",
      "outputs": [],
      "stateMutability": "nonpayable",
      "type": "function"
    },
    {
      "inputs": [
        {
          "internalType": "address",
          "name": "_minter",
          "type": "address"
        }
      ],
      "name": "setMinter",
      "outputs": [],
      "stateMutability": "nonpayable",
      "type": "function"
    },
    {
      "inputs": [
        {
          "internalType": "bytes4",
          "name": "interfaceId",
          "type": "bytes4"
        }
      ],
      "name": "supportsInterface",
      "outputs": [
        {
          "internalType": "bool",
          "name": "",
          "type": "bool"
        }
      ],
      "stateMutability": "view",
      "type": "function"
    },
    {
      "inputs": [],
      "name": "symbol",
      "outputs": [
        {
          "internalType": "string",
          "name": "",
          "type": "string"
        }
      ],
      "stateMutability": "view",
      "type": "function"
    },
    {
      "inputs": [],
      "name": "tokenCounter",
      "outputs": [
        {
          "internalType": "uint256",
          "name": "",
          "type": "uint256"
        }
      ],
      "stateMutability": "view",
      "type": "function"
    },
    {
      "inputs": [
        {
          "internalType": "uint256",
          "name": "tokenId",
          "type": "uint256"
        }
      ],
      "name": "tokenURI",
      "outputs": [
        {
          "internalType": "string",
          "name": "",
          "type": "string"
        }
      ],
      "stateMutability": "view",
      "type": "function"
    },
    {
      "inputs": [
        {
          "internalType": "address",
          "name": "from",
          "type": "address"
        },
        {
          "internalType": "address",
          "name": "to",
          "type": "address"
        },
        {
          "internalType": "uint256",
          "name": "tokenId",
          "type": "uint256"
        }
      ],
      "name": "transferFrom",
      "outputs": [],
      "stateMutability": "nonpayable",
      "type": "function"
    },
    {
      "inputs": [
        {
          "internalType": "address",
          "name": "newOwner",
          "type": "address"
        }
      ],
      "name": "transferOwnership",
      "outputs": [],
      "stateMutability": "nonpayable",
      "type": "function"
    }
  ],
  "bytecode": "0x60806040523480156200001157600080fd5b50336040518060400160405280600981526020017f426f756e74794e465400000000000000000000000000000000000000000000008152506040518060400160405280600581526020017f424e54534a0000000000000000000000000000000000000000000000000000008152508160009081620000909190620004b3565b508060019081620000a29190620004b3565b505050600073ffffffffffffffffffffffffffffffffffffffff168173ffffffffffffffffffffffffffffffffffffffff16036200011a5760006040517f1e4fbdf7000000000000000000000000000000000000000000000000000000008152600401620001119190620005df565b60405180910390fd5b6200012b816200017360201b60201c565b5033600960006101000a81548173ffffffffffffffffffffffffffffffffffffffff021916908373ffffffffffffffffffffffffffffffffffffffff160217905550620005fc565b6000600760009054906101000a900473ffffffffffffffffffffffffffffffffffffffff16905081600760006101000a81548173ffffffffffffffffffffffffffffffffffffffff021916908373ffffffffffffffffffffffffffffffffffffffff1602179055508173ffffffffffffffffffffffffffffffffffffffff168173ffffffffffffffffffffffffffffffffffffffff167f8be0079c531659141344cd1fd0a4f28419497f9722a3daafe3b4186f6b6457e060405160405180910390a35050565b600081519050919050565b7f4e487b7100000000000000000000000000000000000000000000000000000000600052604160045260246000fd5b7f4e487b7100000000000000000000000000000000000000000000000000000000600052602260045260246000fd5b60006002820490506001821680620002bb57607f821691505b602082108103620002d157620002d062000273565b5b50919050565b60008190508160005260206000209050919050565b60006020601f8301049050919050565b600082821b905092915050565b6000600883026200033b7fffffffffffffffffffffffffffffffffffffffffffffffffffffffffffffffff82620002fc565b620003478683620002fc565b95508019841693508086168417925050509392505050565b6000819050919050565b6000819050919050565b6000620003946200038e62000388846200035f565b62000369565b6200035f565b9050919050565b6000819050919050565b620003b08362000373565b620003c8620003bf826200039b565b84845462000309565b825550505050565b600090565b620003df620003d0565b620003ec818484620003a5565b505050565b5b81811015620004145762000408600082620003d5565b600181019050620003f2565b5050565b601f82111562000463576200042d81620002d7565b6200043884620002ec565b8101602085101562000448578190505b620004606200045785620002ec565b830182620003f1565b50505b505050565b600082821c905092915050565b6000620004886000198460080262000468565b1980831691505092915050565b6000620004a3838362000475565b9150826002028217905092915050565b620004be8262000239565b67ffffffffffffffff811115620004da57620004d962000244565b5b620004e68254620002a2565b620004f382828562000418565b600060209050601f8311600181146200052b576000841562000516578287015190505b62000522858262000495565b86555062000592565b601f1984166200053b86620002d7565b60005b8281101562000565578489015182556001820191506020850194506020810190506200053e565b8683101562000585578489015162000581601f89168262000475565b8355505b6001600288020188555050505b505050505050565b600073ffffffffffffffffffffffffffffffffffffffff82169050919050565b6000620005c7826200059a565b9050919050565b620005d981620005ba565b82525050565b6000602082019050620005f66000830184620005ce565b92915050565b612849806200060c6000396000f3fe608060405234801561001057600080fd5b506004361061012c5760003560e01c80638da5cb5b116100ad578063d082e38111610071578063d082e3811461032f578063d0def5211461034d578063e985e9c514610369578063f2fde38b14610399578063fca3b5aa146103b55761012c565b80638da5cb5b1461028b57806395d89b41146102a9578063a22cb465146102c7578063b88d4fde146102e3578063c87b56dd146102ff5761012c565b806323b872dd116100f457806323b872dd146101e957806342842e0e146102055780636352211e1461022157806370a0823114610251578063715018a6146102815761012c565b806301ffc9a71461013157806306fdde0314610161578063075461721461017f578063081812fc1461019d578063095ea7b3146101cd575b600080fd5b61014b60048036038101906101469190611c35565b6103d1565b6040516101589190611c7d565b60405180910390f35b610169610432565b6040516101769190611d28565b60405180910390f35b6101876104c4565b6040516101949190611d8b565b60405180910390f35b6101b760048036038101906101b29190611ddc565b6104ea565b6040516101c49190611d8b565b60405180910390f35b6101e760048036038101906101e29190611e35565b610506565b005b61020360048036038101906101fe9190611e75565b61051c565b005b61021f600480360381019061021a9190611e75565b61061e565b005b61023b60048036038101906102369190611ddc565b61063e565b6040516102489190611d8b565b60405180910390f35b61026b60048036038101906102669190611ec8565b610650565b6040516102789190611f04565b60405180910390f35b61028961070a565b005b61029361071e565b6040516102a09190611d8b565b60405180910390f35b6102b1610748565b6040516102be9190611d28565b60405180910390f35b6102e160048036038101906102dc9190611f4b565b6107da565b005b6102fd60048036038101906102f891906120c0565b6107f0565b005b61031960048036038101906103149190611ddc565b610815565b6040516103269190611d28565b60405180910390f35b610337610928565b6040516103449190611f04565b60405180910390f35b610367600480360381019061036291906121e4565b61092e565b005b610383600480360381019061037e9190612240565b6109f2565b6040516103909190611c7d565b60405180910390f35b6103b360048036038101906103ae9190611ec8565b610a86565b005b6103cf60048036038101906103ca9190611ec8565b610b0c565b005b6000634906490660e01b7bffffffffffffffffffffffffffffffffffffffffffffffffffffffff1916827bffffffffffffffffffffffffffffffffffffffffffffffffffffffff1916148061042b575061042a82610b58565b5b9050919050565b606060008054610441906122af565b80601f016020809104026020016040519081016040528092919081815260200182805461046d906122af565b80156104ba5780601f1061048f576101008083540402835291602001916104ba565b820191906000526020600020905b81548152906001019060200180831161049d57829003601f168201915b5050505050905090565b600960009054906101000a900473ffffffffffffffffffffffffffffffffffffffff1681565b60006104f582610c3a565b506104ff82610cc2565b9050919050565b6105188282610513610cff565b610d07565b5050565b600073ffffffffffffffffffffffffffffffffffffffff168273ffffffffffffffffffffffffffffffffffffffff160361058e5760006040517f64a0ae920000000000000000000000000000000000000000000000000000000081526004016105859190611d8b565b60405180910390fd5b60006105a2838361059d610cff565b610d19565b90508373ffffffffffffffffffffffffffffffffffffffff168173ffffffffffffffffffffffffffffffffffffffff1614610618578382826040517f64283d7b00000000000000000000000000000000000000000000000000000000815260040161060f939291906122e0565b60405180910390fd5b50505050565b610639838383604051806020016040528060008152506107f0565b505050565b600061064982610c3a565b9050919050565b60008073ffffffffffffffffffffffffffffffffffffffff168273ffffffffffffffffffffffffffffffffffffffff16036106c35760006040517f89c62b640000000000000000000000000000000000000000000000000000000081526004016106ba9190611d8b565b60405180910390fd5b600360008373ffffffffffffffffffffffffffffffffffffffff1673ffffffffffffffffffffffffffffffffffffffff168152602001908152602001600020549050919050565b610712610f33565b61071c6000610fba565b565b6000600760009054906101000a900473ffffffffffffffffffffffffffffffffffffffff16905090565b606060018054610757906122af565b80601f0160208091040260200160405190810160405280929190818152602001828054610783906122af565b80156107d05780601f106107a5576101008083540402835291602001916107d0565b820191906000526020600020905b8154815290600101906020018083116107b357829003601f168201915b5050505050905090565b6107ec6107e5610cff565b8383611080565b5050565b6107fb84848461051c565b61080f610806610cff565b858585856111ef565b50505050565b606061082082610c3a565b506000600660008481526020019081526020016000208054610841906122af565b80601f016020809104026020016040519081016040528092919081815260200182805461086d906122af565b80156108ba5780601f1061088f576101008083540402835291602001916108ba565b820191906000526020600020905b81548152906001019060200180831161089d57829003601f168201915b5050505050905060006108cb6113a0565b905060008151036108e0578192505050610923565b6000825111156109155780826040516020016108fd929190612353565b60405160208183030381529060405292505050610923565b61091e846113b7565b925050505b919050565b60085481565b600960009054906101000a900473ffffffffffffffffffffffffffffffffffffffff1673ffffffffffffffffffffffffffffffffffffffff163373ffffffffffffffffffffffffffffffffffffffff16146109be576040517f08c379a00000000000000000000000000000000000000000000000000000000081526004016109b5906123c3565b60405180910390fd5b600860008154809291906109d190612412565b91905055506109e282600854611420565b6109ee6008548261143e565b5050565b6000600560008473ffffffffffffffffffffffffffffffffffffffff1673ffffffffffffffffffffffffffffffffffffffff16815260200190815260200160002060008373ffffffffffffffffffffffffffffffffffffffff1673ffffffffffffffffffffffffffffffffffffffff16815260200190815260200160002060009054906101000a900460ff16905092915050565b610a8e610f33565b600073ffffffffffffffffffffffffffffffffffffffff168173ffffffffffffffffffffffffffffffffffffffff1603610b005760006040517f1e4fbdf7000000000000000000000000000000000000000000000000000000008152600401610af79190611d8b565b60405180910390fd5b610b0981610fba565b50565b610b14610f33565b80600960006101000a81548173ffffffffffffffffffffffffffffffffffffffff021916908373ffffffffffffffffffffffffffffffffffffffff16021790555050565b60007f80ac58cd000000000000000000000000000000000000000000000000000000007bffffffffffffffffffffffffffffffffffffffffffffffffffffffff1916827bffffffffffffffffffffffffffffffffffffffffffffffffffffffff19161480610c2357507f5b5e139f000000000000000000000000000000000000000000000000000000007bffffffffffffffffffffffffffffffffffffffffffffffffffffffff1916827bffffffffffffffffffffffffffffffffffffffffffffffffffffffff1916145b80610c335750610c328261149a565b5b9050919050565b600080610c4683611504565b9050600073ffffffffffffffffffffffffffffffffffffffff168173ffffffffffffffffffffffffffffffffffffffff1603610cb957826040517f7e273289000000000000000000000000000000000000000000000000000000008152600401610cb09190611f04565b60405180910390fd5b80915050919050565b60006004600083815260200190815260200160002060009054906101000a900473ffffffffffffffffffffffffffffffffffffffff169050919050565b600033905090565b610d148383836001611541565b505050565b600080610d2584611504565b9050600073ffffffffffffffffffffffffffffffffffffffff168373ffffffffffffffffffffffffffffffffffffffff1614610d6757610d66818486611706565b5b600073ffffffffffffffffffffffffffffffffffffffff168173ffffffffffffffffffffffffffffffffffffffff1614610df857610da9600085600080611541565b6001600360008373ffffffffffffffffffffffffffffffffffffffff1673ffffffffffffffffffffffffffffffffffffffff168152602001908152602001600020600082825403925050819055505b600073ffffffffffffffffffffffffffffffffffffffff168573ffffffffffffffffffffffffffffffffffffffff1614610e7b576001600360008773ffffffffffffffffffffffffffffffffffffffff1673ffffffffffffffffffffffffffffffffffffffff168152602001908152602001600020600082825401925050819055505b846002600086815260200190815260200160002060006101000a81548173ffffffffffffffffffffffffffffffffffffffff021916908373ffffffffffffffffffffffffffffffffffffffff160217905550838573ffffffffffffffffffffffffffffffffffffffff168273ffffffffffffffffffffffffffffffffffffffff167fddf252ad1be2c89b69c2b068fc378daa952ba7f163c4a11628f55a4df523b3ef60405160405180910390a4809150509392505050565b610f3b610cff565b73ffffffffffffffffffffffffffffffffffffffff16610f5961071e565b73ffffffffffffffffffffffffffffffffffffffff1614610fb857610f7c610cff565b6040517f118cdaa7000000000000000000000000000000000000000000000000000000008152600401610faf9190611d8b565b60405180910390fd5b565b6000600760009054906101000a900473ffffffffffffffffffffffffffffffffffffffff16905081600760006101000a81548173ffffffffffffffffffffffffffffffffffffffff021916908373ffffffffffffffffffffffffffffffffffffffff1602179055508173ffffffffffffffffffffffffffffffffffffffff168173ffffffffffffffffffffffffffffffffffffffff167f8be0079c531659141344cd1fd0a4f28419497f9722a3daafe3b4186f6b6457e060405160405180910390a35050565b600073ffffffffffffffffffffffffffffffffffffffff168273ffffffffffffffffffffffffffffffffffffffff16036110f157816040517f5b08ba180000000000000000000000000000000000000000000000000000000081526004016110e89190611d8b565b60405180910390fd5b80600560008573ffffffffffffffffffffffffffffffffffffffff1673ffffffffffffffffffffffffffffffffffffffff16815260200190815260200160002060008473ffffffffffffffffffffffffffffffffffffffff1673ffffffffffffffffffffffffffffffffffffffff16815260200190815260200160002060006101000a81548160ff0219169083151502179055508173ffffffffffffffffffffffffffffffffffffffff168373ffffffffffffffffffffffffffffffffffffffff167f17307eab39ab6107e8899845ad3d59bd9653f200f220920489ca2b5937696c31836040516111e29190611c7d565b60405180910390a3505050565b60008373ffffffffffffffffffffffffffffffffffffffff163b1115611399578273ffffffffffffffffffffffffffffffffffffffff1663150b7a02868685856040518563ffffffff1660e01b815260040161124e94939291906124af565b6020604051808303816000875af192505050801561128a57506040513d601f19601f820116820180604052508101906112879190612510565b60015b61130e573d80600081146112ba576040519150601f19603f3d011682016040523d82523d6000602084013e6112bf565b606091505b50600081510361130657836040517f64a0ae920000000000000000000000000000000000000000000000000000000081526004016112fd9190611d8b565b60405180910390fd5b805181602001fd5b63150b7a0260e01b7bffffffffffffffffffffffffffffffffffffffffffffffffffffffff1916817bffffffffffffffffffffffffffffffffffffffffffffffffffffffff19161461139757836040517f64a0ae9200000000000000000000000000000000000000000000000000000000815260040161138e9190611d8b565b60405180910390fd5b505b5050505050565b606060405180602001604052806000815250905090565b60606113c282610c3a565b5060006113cd6113a0565b905060008151116113ed5760405180602001604052806000815250611418565b806113f7846117ca565b604051602001611408929190612353565b6040516020818303038152906040525b915050919050565b61143a828260405180602001604052806000815250611898565b5050565b8060066000848152602001908152602001600020908161145e91906126e9565b507ff8e1a15aba9398e019f0b49df1a4fde98ee17ae345cb5f6b5e2c27f5033e8ce78260405161148e9190611f04565b60405180910390a15050565b60007f01ffc9a7000000000000000000000000000000000000000000000000000000007bffffffffffffffffffffffffffffffffffffffffffffffffffffffff1916827bffffffffffffffffffffffffffffffffffffffffffffffffffffffff1916149050919050565b60006002600083815260200190815260200160002060009054906101000a900473ffffffffffffffffffffffffffffffffffffffff169050919050565b808061157a5750600073ffffffffffffffffffffffffffffffffffffffff168273ffffffffffffffffffffffffffffffffffffffff1614155b156116ae57600061158a84610c3a565b9050600073ffffffffffffffffffffffffffffffffffffffff168373ffffffffffffffffffffffffffffffffffffffff16141580156115f557508273ffffffffffffffffffffffffffffffffffffffff168173ffffffffffffffffffffffffffffffffffffffff1614155b8015611608575061160681846109f2565b155b1561164a57826040517fa9fbf51f0000000000000000000000000000000000000000000000000000000081526004016116419190611d8b565b60405180910390fd5b81156116ac57838573ffffffffffffffffffffffffffffffffffffffff168273ffffffffffffffffffffffffffffffffffffffff167f8c5be1e5ebec7d5bd14f71427d1e84f3dd0314c0f7b2291e5b200ac8c7c3b92560405160405180910390a45b505b836004600085815260200190815260200160002060006101000a81548173ffffffffffffffffffffffffffffffffffffffff021916908373ffffffffffffffffffffffffffffffffffffffff16021790555050505050565b6117118383836118bc565b6117c557600073ffffffffffffffffffffffffffffffffffffffff168373ffffffffffffffffffffffffffffffffffffffff160361178657806040517f7e27328900000000000000000000000000000000000000000000000000000000815260040161177d9190611f04565b60405180910390fd5b81816040517f177e802f0000000000000000000000000000000000000000000000000000000081526004016117bc9291906127bb565b60405180910390fd5b505050565b6060600060016117d98461197d565b01905060008167ffffffffffffffff8111156117f8576117f7611f95565b5b6040519080825280601f01601f19166020018201604052801561182a5781602001600182028036833780820191505090505b509050600082602001820190505b60011561188d578080600190039150507f3031323334353637383961626364656600000000000000000000000000000000600a86061a8153600a8581611881576118806127e4565b5b04945060008503611838575b819350505050919050565b6118a28383611ad0565b6118b76118ad610cff565b60008585856111ef565b505050565b60008073ffffffffffffffffffffffffffffffffffffffff168373ffffffffffffffffffffffffffffffffffffffff161415801561197457508273ffffffffffffffffffffffffffffffffffffffff168473ffffffffffffffffffffffffffffffffffffffff161480611935575061193484846109f2565b5b8061197357508273ffffffffffffffffffffffffffffffffffffffff1661195b83610cc2565b73ffffffffffffffffffffffffffffffffffffffff16145b5b90509392505050565b600080600090507a184f03e93ff9f4daa797ed6e38ed64bf6a1f01000000000000000083106119db577a184f03e93ff9f4daa797ed6e38ed64bf6a1f01000000000000000083816119d1576119d06127e4565b5b0492506040810190505b6d04ee2d6d415b85acef81000000008310611a18576d04ee2d6d415b85acef81000000008381611a0e57611a0d6127e4565b5b0492506020810190505b662386f26fc100008310611a4757662386f26fc100008381611a3d57611a3c6127e4565b5b0492506010810190505b6305f5e1008310611a70576305f5e1008381611a6657611a656127e4565b5b0492506008810190505b6127108310611a95576127108381611a8b57611a8a6127e4565b5b0492506004810190505b60648310611ab85760648381611aae57611aad6127e4565b5b0492506002810190505b600a8310611ac7576001810190505b80915050919050565b600073ffffffffffffffffffffffffffffffffffffffff168273ffffffffffffffffffffffffffffffffffffffff1603611b425760006040517f64a0ae92000000000000000000000000000000000000000000000000000000008152600401611b399190611d8b565b60405180910390fd5b6000611b5083836000610d19565b9050600073ffffffffffffffffffffffffffffffffffffffff168173ffffffffffffffffffffffffffffffffffffffff1614611bc45760006040517f73c6ac6e000000000000000000000000000000000000000000000000000000008152600401611bbb9190611d8b565b60405180910390fd5b505050565b6000604051905090565b600080fd5b600080fd5b60007fffffffff0000000000000000000000000000000000000000000000000000000082169050919050565b611c1281611bdd565b8114611c1d57600080fd5b50565b600081359050611c2f81611c09565b92915050565b600060208284031215611c4b57611c4a611bd3565b5b6000611c5984828501611c20565b91505092915050565b60008115159050919050565b611c7781611c62565b82525050565b6000602082019050611c926000830184611c6e565b92915050565b600081519050919050565b600082825260208201905092915050565b60005b83811015611cd2578082015181840152602081019050611cb7565b60008484015250505050565b6000601f19601f8301169050919050565b6000611cfa82611c98565b611d048185611ca3565b9350611d14818560208601611cb4565b611d1d81611cde565b840191505092915050565b60006020820190508181036000830152611d428184611cef565b905092915050565b600073ffffffffffffffffffffffffffffffffffffffff82169050919050565b6000611d7582611d4a565b9050919050565b611d8581611d6a565b82525050565b6000602082019050611da06000830184611d7c565b92915050565b6000819050919050565b611db981611da6565b8114611dc457600080fd5b50565b600081359050611dd681611db0565b92915050565b600060208284031215611df257611df1611bd3565b5b6000611e0084828501611dc7565b91505092915050565b611e1281611d6a565b8114611e1d57600080fd5b50565b600081359050611e2f81611e09565b92915050565b60008060408385031215611e4c57611e4b611bd3565b5b6000611e5a85828601611e20565b9250506020611e6b85828601611dc7565b9150509250929050565b600080600060608486031215611e8e57611e8d611bd3565b5b6000611e9c86828701611e20565b9350506020611ead86828701611e20565b9250506040611ebe86828701611dc7565b9150509250925092565b600060208284031215611ede57611edd611bd3565b5b6000611eec84828501611e20565b91505092915050565b611efe81611da6565b82525050565b6000602082019050611f196000830184611ef5565b92915050565b611f2881611c62565b8114611f3357600080fd5b50565b600081359050611f4581611f1f565b92915050565b60008060408385031215611f6257611f61611bd3565b5b6000611f7085828601611e20565b9250506020611f8185828601611f36565b9150509250929050565b600080fd5b600080fd5b7f4e487b7100000000000000000000000000000000000000000000000000000000600052604160045260246000fd5b611fcd82611cde565b810181811067ffffffffffffffff82111715611fec57611feb611f95565b5b80604052505050565b6000611fff611bc9565b905061200b8282611fc4565b919050565b600067ffffffffffffffff82111561202b5761202a611f95565b5b61203482611cde565b9050602081019050919050565b82818337600083830152505050565b600061206361205e84612010565b611ff5565b90508281526020810184848401111561207f5761207e611f90565b5b61208a848285612041565b509392505050565b600082601f8301126120a7576120a6611f8b565b5b81356120b7848260208601612050565b91505092915050565b600080600080608085870312156120da576120d9611bd3565b5b60006120e887828801611e20565b94505060206120f987828801611e20565b935050604061210a87828801611dc7565b925050606085013567ffffffffffffffff81111561212b5761212a611bd8565b5b61213787828801612092565b91505092959194509250565b600067ffffffffffffffff82111561215e5761215d611f95565b5b61216782611cde565b9050602081019050919050565b600061218761218284612143565b611ff5565b9050828152602081018484840111156121a3576121a2611f90565b5b6121ae848285612041565b509392505050565b600082601f8301126121cb576121ca611f8b565b5b81356121db848260208601612174565b91505092915050565b600080604083850312156121fb576121fa611bd3565b5b600061220985828601611e20565b925050602083013567ffffffffffffffff81111561222a57612229611bd8565b5b612236858286016121b6565b9150509250929050565b6000806040838503121561225757612256611bd3565b5b600061226585828601611e20565b925050602061227685828601611e20565b9150509250929050565b7f4e487b7100000000000000000000000000000000000000000000000000000000600052602260045260246000fd5b600060028204905060018216806122c757607f821691505b6020821081036122da576122d9612280565b5b50919050565b60006060820190506122f56000830186611d7c565b6123026020830185611ef5565b61230f6040830184611d7c565b949350505050565b600081905092915050565b600061232d82611c98565b6123378185612317565b9350612347818560208601611cb4565b80840191505092915050565b600061235f8285612322565b915061236b8284612322565b91508190509392505050565b7f4f6e6c79206d696e746572000000000000000000000000000000000000000000600082015250565b60006123ad600b83611ca3565b91506123b882612377565b602082019050919050565b600060208201905081810360008301526123dc816123a0565b9050919050565b7f4e487b7100000000000000000000000000000000000000000000000000000000600052601160045260246000fd5b600061241d82611da6565b91507fffffffffffffffffffffffffffffffffffffffffffffffffffffffffffffffff820361244f5761244e6123e3565b5b600182019050919050565b600081519050919050565b600082825260208201905092915050565b60006124818261245a565b61248b8185612465565b935061249b818560208601611cb4565b6124a481611cde565b840191505092915050565b60006080820190506124c46000830187611d7c565b6124d16020830186611d7c565b6124de6040830185611ef5565b81810360608301526124f08184612476565b905095945050505050565b60008151905061250a81611c09565b92915050565b60006020828403121561252657612525611bd3565b5b6000612534848285016124fb565b91505092915050565b60008190508160005260206000209050919050565b60006020601f8301049050919050565b600082821b905092915050565b60006008830261259f7fffffffffffffffffffffffffffffffffffffffffffffffffffffffffffffffff82612562565b6125a98683612562565b95508019841693508086168417925050509392505050565b6000819050919050565b60006125e66125e16125dc84611da6565b6125c1565b611da6565b9050919050565b6000819050919050565b612600836125cb565b61261461260c826125ed565b84845461256f565b825550505050565b600090565b61262961261c565b6126348184846125f7565b505050565b5b818110156126585761264d600082612621565b60018101905061263a565b5050565b601f82111561269d5761266e8161253d565b61267784612552565b81016020851015612686578190505b61269a61269285612552565b830182612639565b50505b505050565b600082821c905092915050565b60006126c0600019846008026126a2565b1980831691505092915050565b60006126d983836126af565b9150826002028217905092915050565b6126f282611c98565b67ffffffffffffffff81111561270b5761270a611f95565b5b61271582546122af565b61272082828561265c565b600060209050601f8311600181146127535760008415612741578287015190505b61274b85826126cd565b8655506127b3565b601f1984166127618661253d565b60005b8281101561278957848901518255600182019150602085019450602081019050612764565b868310156127a657848901516127a2601f8916826126af565b8355505b6001600288020188555050505b505050505050565b60006040820190506127d06000830185611d7c565b6127dd6020830184611ef5565b9392505050565b7f4e487b7100000000000000000000000000000000000000000000000000000000600052601260045260246000fdfea2646970667358221220ac80484b7bc658a08546869e4ecd0c83ff104a67c371762da798b62c5a9115bf64736f6c63430008160033",
  "linkReferences": {},
  "deployedLinkReferences": {}
}