{
  "_format": "hh-sol-artifact-1",
  "contractName": "BountyAgent",
  "sourceName": "contracts/BountyAgent.sol",
  "abi": [
    {
      "inputs": [
        {
          "internalType": "address",
          "name": "_nftAddress",
          "type": "address"
        },
        {
          "internalType": "address",
          "name": "_usdcAddress",
          "type": "address"
        }
      ],
      "stateMutability": "nonpayable",
      "type": "constructor"
    },
    {
      "inputs": [
        {
          "internalType": "address",
          "name": "owner",
          "type": "address"
        }
      ],
      "name": "OwnableInvalidOwner",
      "type": "error"
    },
    {
      "inputs": [
        {
          "internalType": "address",
          "name": "account",
          "type": "address"
        }
      ],
      "name": "OwnableUnauthorizedAccount",
      "type": "error"
    },
    {
      "anonymous": false,
      "inputs": [
        {
          "indexed": true,
          "internalType": "uint256",
          "name": "id",
          "type": "uint256"
        },
        {
          "indexed": false,
          "internalType": "address",
          "name": "creator",
          "type": "address"
        },
        {
          "indexed": false,
          "internalType": "uint256",
          "name": "prize",
          "type": "uint256"
        }
      ],
      "name": "BountyCreated",
      "type": "event"
    },
    {
      "anonymous": false,
      "inputs": [
        {
          "indexed": true,
          "internalType": "address",
          "name": "previousOwner",
          "type": "address"
        },
        {
          "indexed": true,
          "internalType": "address",
          "name": "newOwner",
          "type": "address"
        }
      ],
      "name": "OwnershipTransferred",
      "type": "event"
    },
    {
      "anonymous": false,
      "inputs": [
        {
          "indexed": true,
          "internalType": "uint256",
          "name": "id",
          "type": "uint256"
        },
        {
          "indexed": false,
          "internalType": "uint256[]",
          "name": "winnerIndexes",
          "type": "uint256[]"
        }
      ],
      "name": "PrizesDistributed",
      "type": "event"
    },
    {
      "anonymous": false,
      "inputs": [
        {
          "indexed": true,
          "internalType": "uint256",
          "name": "id",
          "type": "uint256"
        },
        {
          "indexed": false,
          "internalType": "address",
          "name": "contributor",
          "type": "address"
        },
        {
          "indexed": false,
          "internalType": "string",
          "name": "cid",
          "type": "string"
        }
      ],
      "name": "SubmissionPaid",
      "type": "event"
    },
    {
      "inputs": [
        {
          "internalType": "uint256",
          "name": "",
          "type": "uint256"
        }
      ],
      "name": "bounties",
      "outputs": [
        {
          "internalType": "address",
          "name": "creator",
          "type": "address"
        },
        {
          "internalType": "uint256",
          "name": "prize",
          "type": "uint256"
        },
        {
          "internalType": "uint256",
          "name": "entryFee",
          "type": "uint256"
        },
        {
          "internalType": "uint32",
          "name": "maxWinners",
          "type": "uint32"
        },
        {
          "internalType": "uint256",
          "name": "deadline",
          "type": "uint256"
        },
        {
          "internalType": "bool",
          "name": "settled",
          "type": "bool"
        },
        {
          "internalType": "string",
          "name": "topic",
          "type": "string"
        },
        {
          "internalType": "string",
          "name": "description",
          "type": "string"
        }
      ],
      "stateMutability": "view",
      "type": "function"
    },
    {
      "inputs": [],
      "name": "bountyCount",
      "outputs": [
        {
          "internalType": "uint256",
          "name": "",
          "type": "uint256"
        }
      ],
      "stateMutability": "view",
      "type": "function"
    },
    {
      "inputs": [
        {
          "internalType": "uint256",
          "name": "_prize",
          "type": "uint256"
        },
        {
          "internalType": "uint256",
          "name": "_entryFee",
          "type": "uint256"
        },
        {
          "internalType": "uint32",
          "name": "_maxWinners",
          "type": "uint32"
        },
        {
          "internalType": "uint256",
          "name": "_deadline",
          "type": "uint256"
        },
        {
          "internalType": "string",
          "name": "_topic",
          "type": "string"
        },
        {
          "internalType": "string",
          "name": "_description",
          "type": "string"
        }
      ],
      "name": "createBounty",
      "outputs": [],
      "stateMutability": "nonpayable",
      "type": "function"
    },
    {
      "inputs": [
        {
          "internalType": "uint256",
          "name": "_bountyId",
          "type": "uint256"
        },
        {
          "internalType": "uint256[]",
          "name": "winnerIndexes",
          "type": "uint256[]"
        }
      ],
      "name": "distributePrizes",
      "outputs": [],
      "stateMutability": "nonpayable",
      "type": "function"
    },
    {
      "inputs": [],
      "name": "nftContract",
      "outputs": [
        {
          "internalType": "contract BountyNFT",
          "name": "",
          "type": "address"
        }
      ],
      "stateMutability": "view",
      "type": "function"
    },
    {
      "inputs": [],
      "name": "owner",
      "outputs": [
        {
          "internalType": "address",
          "name": "",
          "type": "address"
        }
      ],
      "stateMutability": "view",
      "type": "function"
    },
    {
      "inputs": [],
      "name": "platformFeeBps",
      "outputs": [
        {
          "internalType": "uint256",
          "name": "",
          "type": "uint256"
        }
      ],
      "stateMutability": "view",
      "type": "function"
    },
    {
      "inputs": [],
      "name": "renounceOwnership",
      "outputs": [],
      "stateMutability": "nonpayable",
      "type": "function"
    },
    {
      "inputs": [
        {
          "internalType": "uint256",
          "name": "",
          "type": "uint256"
        },
        {
          "internalType": "uint256",
          "name": "",
          "type": "uint256"
        }
      ],
      "name": "submissions",
      "outputs": [
        {
          "internalType": "address",
          "name": "contributor",
          "type": "address"
        },
        {
          "internalType": "string",
          "name": "cid",
          "type": "string"
        }
      ],
      "stateMutability": "view",
      "type": "function"
    },
    {
      "inputs": [
        {
          "internalType": "uint256",
          "name": "_bountyId",
          "type": "uint256"
        },
        {
          "internalType": "string",
          "name": "_cid",
          "type": "string"
        }
      ],
      "name": "submitWork",
      "outputs": [],
      "stateMutability": "nonpayable",
      "type": "function"
    },
    {
      "inputs": [
        {
          "internalType": "address",
          "name": "newOwner",
          "type": "address"
        }
      ],
      "name": "transferOwnership",
      "outputs": [],
      "stateMutability": "nonpayable",
      "type": "function"
    },
    {
      "inputs": [],
      "name": "usdc",
      "outputs": [
        {
          "internalType": "contract IERC20",
          "name": "",
          "type": "address"
        }
      ],
      "stateMutability": "view",
      "type": "function"
    }
  ],
  "bytecode": "0x60806040526101f46006553480156200001757600080fd5b50604051620028ab380380620028ab83398181016040528101906200003d91906200027d565b33600073ffffffffffffffffffffffffffffffffffffffff168173ffffffffffffffffffffffffffffffffffffffff1603620000b35760006040517f1e4fbdf7000000000000000000000000000000000000000000000000000000008152600401620000aa9190620002d5565b60405180910390fd5b620000c4816200014f60201b60201c565b5081600460006101000a81548173ffffffffffffffffffffffffffffffffffffffff021916908373ffffffffffffffffffffffffffffffffffffffff16021790555080600560006101000a81548173ffffffffffffffffffffffffffffffffffffffff021916908373ffffffffffffffffffffffffffffffffffffffff1602179055505050620002f2565b60008060009054906101000a900473ffffffffffffffffffffffffffffffffffffffff169050816000806101000a81548173ffffffffffffffffffffffffffffffffffffffff021916908373ffffffffffffffffffffffffffffffffffffffff1602179055508173ffffffffffffffffffffffffffffffffffffffff168173ffffffffffffffffffffffffffffffffffffffff167f8be0079c531659141344cd1fd0a4f28419497f9722a3daafe3b4186f6b6457e060405160405180910390a35050565b600080fd5b600073ffffffffffffffffffffffffffffffffffffffff82169050919050565b6000620002458262000218565b9050919050565b620002578162000238565b81146200026357600080fd5b50565b60008151905062000277816200024c565b92915050565b6000806040838503121562000297576200029662000213565b5b6000620002a78582860162000266565b9250506020620002ba8582860162000266565b9150509250929050565b620002cf8162000238565b82525050565b6000602082019050620002ec6000830184620002c4565b92915050565b6125a980620003026000396000f3fe608060405234801561001057600080fd5b50600436106100b45760003560e01c80638da5cb5b116100715780638da5cb5b1461016a5780639e973f9c14610188578063d56d229d146101a4578063da8accf9146101c2578063dc2f8744146101de578063f2fde38b14610215576100b4565b806322dcd13e146100b95780633945a523146100d75780633e362c96146100f35780633e413bee1461011157806369c1fc251461012f578063715018a614610160575b600080fd5b6100c1610231565b6040516100ce91906113ba565b60405180910390f35b6100f160048036038101906100ec919061147a565b610237565b005b6100fb6107da565b60405161010891906113ba565b60405180910390f35b6101196107e0565b6040516101269190611559565b60405180910390f35b61014960048036038101906101449190611574565b610806565b604051610157929190611665565b60405180910390f35b6101686108ef565b005b610172610903565b60405161017f9190611695565b60405180910390f35b6101a2600480360381019061019d919061181c565b61092c565b005b6101ac610cd9565b6040516101b99190611902565b60405180910390f35b6101dc60048036038101906101d79190611973565b610cff565b005b6101f860048036038101906101f391906119d3565b611033565b60405161020c989796959493929190611a2a565b60405180910390f35b61022f600480360381019061022a9190611ae2565b6111c8565b005b60065481565b60006002600085815260200190815260200160002090508060000160009054906101000a900473ffffffffffffffffffffffffffffffffffffffff1673ffffffffffffffffffffffffffffffffffffffff163373ffffffffffffffffffffffffffffffffffffffff16146102e0576040517f08c379a00000000000000000000000000000000000000000000000000000000081526004016102d790611b5b565b60405180910390fd5b8060040154421015610327576040517f08c379a000000000000000000000000000000000000000000000000000000000815260040161031e90611bc7565b60405180910390fd5b8060050160009054906101000a900460ff1615610379576040517f08c379a000000000000000000000000000000000000000000000000000000000815260040161037090611c33565b60405180910390fd5b6000838390501180156103a957508060030160009054906101000a900463ffffffff1663ffffffff168383905011155b6103e8576040517f08c379a00000000000000000000000000000000000000000000000000000000081526004016103df90611c9f565b60405180910390fd5b6000816001015490506000612710600654836104049190611cee565b61040e9190611d5f565b905060008585905082846104229190611d90565b61042c9190611d5f565b9050600560009054906101000a900473ffffffffffffffffffffffffffffffffffffffff1673ffffffffffffffffffffffffffffffffffffffff1663a9059cbb610474610903565b846040518363ffffffff1660e01b8152600401610492929190611dc4565b6020604051808303816000875af11580156104b1573d6000803e3d6000fd5b505050506040513d601f19601f820116820180604052508101906104d59190611e19565b5060005b86869050811015610779576000600360008a815260200190815260200160002088888481811061050c5761050b611e46565b5b905060200201358154811061052457610523611e46565b5b90600052602060002090600202016040518060400160405290816000820160009054906101000a900473ffffffffffffffffffffffffffffffffffffffff1673ffffffffffffffffffffffffffffffffffffffff1673ffffffffffffffffffffffffffffffffffffffff1681526020016001820180546105a390611ea4565b80601f01602080910402602001604051908101604052809291908181526020018280546105cf90611ea4565b801561061c5780601f106105f15761010080835404028352916020019161061c565b820191906000526020600020905b8154815290600101906020018083116105ff57829003601f168201915b5050505050815250509050600081600001519050600082602001519050600560009054906101000a900473ffffffffffffffffffffffffffffffffffffffff1673ffffffffffffffffffffffffffffffffffffffff1663a9059cbb83876040518363ffffffff1660e01b8152600401610696929190611dc4565b6020604051808303816000875af11580156106b5573d6000803e3d6000fd5b505050506040513d601f19601f820116820180604052508101906106d99190611e19565b50600460009054906101000a900473ffffffffffffffffffffffffffffffffffffffff1673ffffffffffffffffffffffffffffffffffffffff1663d0def52183836040518363ffffffff1660e01b8152600401610737929190611665565b600060405180830381600087803b15801561075157600080fd5b505af1158015610765573d6000803e3d6000fd5b5050505050505080806001019150506104d9565b5060018460050160006101000a81548160ff021916908315150217905550867f280a42209d66306b272bdab4b7284c21c3b4c68124db85c448457df8954844b287876040516107c9929190611f50565b60405180910390a250505050505050565b60015481565b600560009054906101000a900473ffffffffffffffffffffffffffffffffffffffff1681565b6003602052816000526040600020818154811061082257600080fd5b9060005260206000209060020201600091509150508060000160009054906101000a900473ffffffffffffffffffffffffffffffffffffffff169080600101805461086c90611ea4565b80601f016020809104026020016040519081016040528092919081815260200182805461089890611ea4565b80156108e55780601f106108ba576101008083540402835291602001916108e5565b820191906000526020600020905b8154815290600101906020018083116108c857829003601f168201915b5050505050905082565b6108f761124e565b61090160006112d5565b565b60008060009054906101000a900473ffffffffffffffffffffffffffffffffffffffff16905090565b6000861161096f576040517f08c379a000000000000000000000000000000000000000000000000000000000815260040161096690611fc0565b60405180910390fd5b4283116109b1576040517f08c379a00000000000000000000000000000000000000000000000000000000081526004016109a89061202c565b60405180910390fd5b85600560009054906101000a900473ffffffffffffffffffffffffffffffffffffffff1673ffffffffffffffffffffffffffffffffffffffff1663dd62ed3e33306040518363ffffffff1660e01b8152600401610a0f92919061204c565b602060405180830381865afa158015610a2c573d6000803e3d6000fd5b505050506040513d601f19601f82011682018060405250810190610a50919061208a565b1015610a91576040517f08c379a0000000000000000000000000000000000000000000000000000000008152600401610a8890612103565b60405180910390fd5b600560009054906101000a900473ffffffffffffffffffffffffffffffffffffffff1673ffffffffffffffffffffffffffffffffffffffff166323b872dd3330896040518463ffffffff1660e01b8152600401610af093929190612123565b6020604051808303816000875af1158015610b0f573d6000803e3d6000fd5b505050506040513d601f19601f82011682018060405250810190610b339190611e19565b5060016000815480929190610b479061215a565b91905055506040518061010001604052803373ffffffffffffffffffffffffffffffffffffffff1681526020018781526020018681526020018563ffffffff1681526020018481526020016000151581526020018381526020018281525060026000600154815260200190815260200160002060008201518160000160006101000a81548173ffffffffffffffffffffffffffffffffffffffff021916908373ffffffffffffffffffffffffffffffffffffffff160217905550602082015181600101556040820151816002015560608201518160030160006101000a81548163ffffffff021916908363ffffffff1602179055506080820151816004015560a08201518160050160006101000a81548160ff02191690831515021790555060c0820151816006019081610c7b9190612344565b5060e0820151816007019081610c919190612344565b509050506001547f1b5e39b039983ddb5862b33842ac157179867c6df1a61f69c50465fd14017f6e3388604051610cc9929190611dc4565b60405180910390a2505050505050565b600460009054906101000a900473ffffffffffffffffffffffffffffffffffffffff1681565b600060026000858152602001908152602001600020905080600401544210610d5c576040517f08c379a0000000000000000000000000000000000000000000000000000000008152600401610d5390612462565b60405180910390fd5b8060020154600560009054906101000a900473ffffffffffffffffffffffffffffffffffffffff1673ffffffffffffffffffffffffffffffffffffffff1663dd62ed3e33306040518363ffffffff1660e01b8152600401610dbe92919061204c565b602060405180830381865afa158015610ddb573d6000803e3d6000fd5b505050506040513d601f19601f82011682018060405250810190610dff919061208a565b1015610e40576040517f08c379a0000000000000000000000000000000000000000000000000000000008152600401610e37906124f4565b60405180910390fd5b600560009054906101000a900473ffffffffffffffffffffffffffffffffffffffff1673ffffffffffffffffffffffffffffffffffffffff166323b872dd333084600201546040518463ffffffff1660e01b8152600401610ea393929190612123565b6020604051808303816000875af1158015610ec2573d6000803e3d6000fd5b505050506040513d601f19601f82011682018060405250810190610ee69190611e19565b506003600085815260200190815260200160002060405180604001604052803373ffffffffffffffffffffffffffffffffffffffff16815260200185858080601f016020809104026020016040519081016040528093929190818152602001838380828437600081840152601f19601f82011690508083019250505050505050815250908060018154018082558091505060019003906000526020600020906002020160009091909190915060008201518160000160006101000a81548173ffffffffffffffffffffffffffffffffffffffff021916908373ffffffffffffffffffffffffffffffffffffffff1602179055506020820151816001019081610fee9190612344565b505050837f2c21b10bdc3b884847978866b40c25db88a7c802f4edec190484fcf3b7584f3a33858560405161102593929190612541565b60405180910390a250505050565b60026020528060005260406000206000915090508060000160009054906101000a900473ffffffffffffffffffffffffffffffffffffffff16908060010154908060020154908060030160009054906101000a900463ffffffff16908060040154908060050160009054906101000a900460ff16908060060180546110b790611ea4565b80601f01602080910402602001604051908101604052809291908181526020018280546110e390611ea4565b80156111305780601f1061110557610100808354040283529160200191611130565b820191906000526020600020905b81548152906001019060200180831161111357829003601f168201915b50505050509080600701805461114590611ea4565b80601f016020809104026020016040519081016040528092919081815260200182805461117190611ea4565b80156111be5780601f10611193576101008083540402835291602001916111be565b820191906000526020600020905b8154815290600101906020018083116111a157829003601f168201915b5050505050905088565b6111d061124e565b600073ffffffffffffffffffffffffffffffffffffffff168173ffffffffffffffffffffffffffffffffffffffff16036112425760006040517f1e4fbdf70000000000000000000000000000000000000000000000000000000081526004016112399190611695565b60405180910390fd5b61124b816112d5565b50565b611256611399565b73ffffffffffffffffffffffffffffffffffffffff16611274610903565b73ffffffffffffffffffffffffffffffffffffffff16146112d357611297611399565b6040517f118cdaa70000000000000000000000000000000000000000000000000000000081526004016112ca9190611695565b60405180910390fd5b565b60008060009054906101000a900473ffffffffffffffffffffffffffffffffffffffff169050816000806101000a81548173ffffffffffffffffffffffffffffffffffffffff021916908373ffffffffffffffffffffffffffffffffffffffff1602179055508173ffffffffffffffffffffffffffffffffffffffff168173ffffffffffffffffffffffffffffffffffffffff167f8be0079c531659141344cd1fd0a4f28419497f9722a3daafe3b4186f6b6457e060405160405180910390a35050565b600033905090565b6000819050919050565b6113b4816113a1565b82525050565b60006020820190506113cf60008301846113ab565b92915050565b6000604051905090565b600080fd5b600080fd5b6113f2816113a1565b81146113fd57600080fd5b50565b60008135905061140f816113e9565b92915050565b600080fd5b600080fd5b600080fd5b60008083601f84011261143a57611439611415565b5b8235905067ffffffffffffffff8111156114575761145661141a565b5b6020830191508360208202830111156114735761147261141f565b5b9250929050565b600080600060408486031215611493576114926113df565b5b60006114a186828701611400565b935050602084013567ffffffffffffffff8111156114c2576114c16113e4565b5b6114ce86828701611424565b92509250509250925092565b600073ffffffffffffffffffffffffffffffffffffffff82169050919050565b6000819050919050565b600061151f61151a611515846114da565b6114fa565b6114da565b9050919050565b600061153182611504565b9050919050565b600061154382611526565b9050919050565b61155381611538565b82525050565b600060208201905061156e600083018461154a565b92915050565b6000806040838503121561158b5761158a6113df565b5b600061159985828601611400565b92505060206115aa85828601611400565b9150509250929050565b60006115bf826114da565b9050919050565b6115cf816115b4565b82525050565b600081519050919050565b600082825260208201905092915050565b60005b8381101561160f5780820151818401526020810190506115f4565b60008484015250505050565b6000601f19601f8301169050919050565b6000611637826115d5565b61164181856115e0565b93506116518185602086016115f1565b61165a8161161b565b840191505092915050565b600060408201905061167a60008301856115c6565b818103602083015261168c818461162c565b90509392505050565b60006020820190506116aa60008301846115c6565b92915050565b600063ffffffff82169050919050565b6116c9816116b0565b81146116d457600080fd5b50565b6000813590506116e6816116c0565b92915050565b600080fd5b7f4e487b7100000000000000000000000000000000000000000000000000000000600052604160045260246000fd5b6117298261161b565b810181811067ffffffffffffffff82111715611748576117476116f1565b5b80604052505050565b600061175b6113d5565b90506117678282611720565b919050565b600067ffffffffffffffff821115611787576117866116f1565b5b6117908261161b565b9050602081019050919050565b82818337600083830152505050565b60006117bf6117ba8461176c565b611751565b9050828152602081018484840111156117db576117da6116ec565b5b6117e684828561179d565b509392505050565b600082601f83011261180357611802611415565b5b81356118138482602086016117ac565b91505092915050565b60008060008060008060c08789031215611839576118386113df565b5b600061184789828a01611400565b965050602061185889828a01611400565b955050604061186989828a016116d7565b945050606061187a89828a01611400565b935050608087013567ffffffffffffffff81111561189b5761189a6113e4565b5b6118a789828a016117ee565b92505060a087013567ffffffffffffffff8111156118c8576118c76113e4565b5b6118d489828a016117ee565b9150509295509295509295565b60006118ec82611526565b9050919050565b6118fc816118e1565b82525050565b600060208201905061191760008301846118f3565b92915050565b60008083601f84011261193357611932611415565b5b8235905067ffffffffffffffff8111156119505761194f61141a565b5b60208301915083600182028301111561196c5761196b61141f565b5b9250929050565b60008060006040848603121561198c5761198b6113df565b5b600061199a86828701611400565b935050602084013567ffffffffffffffff8111156119bb576119ba6113e4565b5b6119c78682870161191d565b92509250509250925092565b6000602082840312156119e9576119e86113df565b5b60006119f784828501611400565b91505092915050565b611a09816116b0565b82525050565b60008115159050919050565b611a2481611a0f565b82525050565b600061010082019050611a40600083018b6115c6565b611a4d602083018a6113ab565b611a5a60408301896113ab565b611a676060830188611a00565b611a7460808301876113ab565b611a8160a0830186611a1b565b81810360c0830152611a93818561162c565b905081810360e0830152611aa7818461162c565b90509998505050505050505050565b611abf816115b4565b8114611aca57600080fd5b50565b600081359050611adc81611ab6565b92915050565b600060208284031215611af857611af76113df565b5b6000611b0684828501611acd565b91505092915050565b7f4f6e6c792063726561746f720000000000000000000000000000000000000000600082015250565b6000611b45600c836115e0565b9150611b5082611b0f565b602082019050919050565b60006020820190508181036000830152611b7481611b38565b9050919050565b7f546f6f206561726c790000000000000000000000000000000000000000000000600082015250565b6000611bb16009836115e0565b9150611bbc82611b7b565b602082019050919050565b60006020820190508181036000830152611be081611ba4565b9050919050565b7f416c726561647920736574746c65640000000000000000000000000000000000600082015250565b6000611c1d600f836115e0565b9150611c2882611be7565b602082019050919050565b60006020820190508181036000830152611c4c81611c10565b9050919050565b7f496e76616c69642077696e6e6572730000000000000000000000000000000000600082015250565b6000611c89600f836115e0565b9150611c9482611c53565b602082019050919050565b60006020820190508181036000830152611cb881611c7c565b9050919050565b7f4e487b7100000000000000000000000000000000000000000000000000000000600052601160045260246000fd5b6000611cf9826113a1565b9150611d04836113a1565b9250828202611d12816113a1565b91508282048414831517611d2957611d28611cbf565b5b5092915050565b7f4e487b7100000000000000000000000000000000000000000000000000000000600052601260045260246000fd5b6000611d6a826113a1565b9150611d75836113a1565b925082611d8557611d84611d30565b5b828204905092915050565b6000611d9b826113a1565b9150611da6836113a1565b9250828203905081811115611dbe57611dbd611cbf565b5b92915050565b6000604082019050611dd960008301856115c6565b611de660208301846113ab565b9392505050565b611df681611a0f565b8114611e0157600080fd5b50565b600081519050611e1381611ded565b92915050565b600060208284031215611e2f57611e2e6113df565b5b6000611e3d84828501611e04565b91505092915050565b7f4e487b7100000000000000000000000000000000000000000000000000000000600052603260045260246000fd5b7f4e487b7100000000000000000000000000000000000000000000000000000000600052602260045260246000fd5b60006002820490506001821680611ebc57607f821691505b602082108103611ecf57611ece611e75565b5b50919050565b600082825260208201905092915050565b600080fd5b82818337505050565b6000611f008385611ed5565b93507f07ffffffffffffffffffffffffffffffffffffffffffffffffffffffffffffff831115611f3357611f32611ee6565b5b602083029250611f44838584611eeb565b82840190509392505050565b60006020820190508181036000830152611f6b818486611ef4565b90509392505050565b7f5072697a65206d757374206265203e2030000000000000000000000000000000600082015250565b6000611faa6011836115e0565b9150611fb582611f74565b602082019050919050565b60006020820190508181036000830152611fd981611f9d565b9050919050565b7f446561646c696e65206d75737420626520667574757265000000000000000000600082015250565b60006120166017836115e0565b915061202182611fe0565b602082019050919050565b6000602082019050818103600083015261204581612009565b9050919050565b600060408201905061206160008301856115c6565b61206e60208301846115c6565b9392505050565b600081519050612084816113e9565b92915050565b6000602082840312156120a05761209f6113df565b5b60006120ae84828501612075565b91505092915050565b7f496e73756666696369656e7420616c6c6f77616e636520666f72207072697a65600082015250565b60006120ed6020836115e0565b91506120f8826120b7565b602082019050919050565b6000602082019050818103600083015261211c816120e0565b9050919050565b600060608201905061213860008301866115c6565b61214560208301856115c6565b61215260408301846113ab565b949350505050565b6000612165826113a1565b91507fffffffffffffffffffffffffffffffffffffffffffffffffffffffffffffffff820361219757612196611cbf565b5b600182019050919050565b60008190508160005260206000209050919050565b60006020601f8301049050919050565b600082821b905092915050565b6000600883026122047fffffffffffffffffffffffffffffffffffffffffffffffffffffffffffffffff826121c7565b61220e86836121c7565b95508019841693508086168417925050509392505050565b600061224161223c612237846113a1565b6114fa565b6113a1565b9050919050565b6000819050919050565b61225b83612226565b61226f61226782612248565b8484546121d4565b825550505050565b600090565b612284612277565b61228f818484612252565b505050565b5b818110156122b3576122a860008261227c565b600181019050612295565b5050565b601f8211156122f8576122c9816121a2565b6122d2846121b7565b810160208510156122e1578190505b6122f56122ed856121b7565b830182612294565b50505b505050565b600082821c905092915050565b600061231b600019846008026122fd565b1980831691505092915050565b6000612334838361230a565b9150826002028217905092915050565b61234d826115d5565b67ffffffffffffffff811115612366576123656116f1565b5b6123708254611ea4565b61237b8282856122b7565b600060209050601f8311600181146123ae576000841561239c578287015190505b6123a68582612328565b86555061240e565b601f1984166123bc866121a2565b60005b828110156123e4578489015182556001820191506020850194506020810190506123bf565b8683101561240157848901516123fd601f89168261230a565b8355505b6001600288020188555050505b505050505050565b7f446561646c696e65207061737365640000000000000000000000000000000000600082015250565b600061244c600f836115e0565b915061245782612416565b602082019050919050565b6000602082019050818103600083015261247b8161243f565b9050919050565b7f496e73756666696369656e7420616c6c6f77616e636520666f7220656e74727960008201527f2066656500000000000000000000000000000000000000000000000000000000602082015250565b60006124de6024836115e0565b91506124e982612482565b604082019050919050565b6000602082019050818103600083015261250d816124d1565b9050919050565b600061252083856115e0565b935061252d83858461179d565b6125368361161b565b840190509392505050565b600060408201905061255660008301866115c6565b8181036020830152612569818486612514565b905094935050505056fea264697066735822122000da348e649c5a7232ed2001b0cd2c28c6bcdd0601536d13510bd13d61b07c6464736f6c63430008160033",
  "linkReferences": {},
  "deployedLinkReferences": {}
}